:080000000C947B000C9400003D
:100008000C9400000C9400000C9400000C94000068
:100018000C9400000C9400000C9400000C94D70081
:100028000C9400000C9400000C9400000C94000048
:100038000C9400000C9400000C9400000C94000038
:100048000C9400000C9400000C94000000000000C8
:1000580000000000010048656C6C6F2177656C63D7
:100068006F6D6520746F206F757220636F6F6C659C
:10007800722074696D657221003700380039007389
:100088006C6F770034003500360066617374003198
:1000980000320033007072657373206D696E757479
:1000A800652100706F6D7000300070726573732089
:1000B800616E7920627574746F6E20666F7220733A
:1000C800746172742100707265737320686F757241
:1000D80021007475726E65645F6F6666000080C08B
:1000E8000A000400540002006602E6000000F894CA
:1000F800EE27ECBBF1E0FBBFEBBFE5BF8DE0A2E074
:10010800BB27ED938A95E9F780E098E0A0E6ED93A8
:100118000197E9F7E8EEF0E085919591009761F095
:10012800A591B59105901590BF01F00105900D922C
:100138000197E1F7FB01F0CFEFE5EDBFE8E0EEBF97
:10014800C0E6D2E00C94F700A0916202B09163027D
:10015800119721F40E947C03109709F413C0E091D1
:100168006002F091610231970E948103E091600280
:10017800F0916102309731F4E1E0F0E0E09364023D
:10018800F09365020895BA93AA93F3010E94860337
:100198003F010C94EC02BA93AA93F4010E948603DF
:1001A8004F010C94EC020A921A92FA926A937A938B
:1001B8008A939A93AA93BA93EA93FA93EFB7EA9336
:1001C800EEE9EDBDE8E5ECBDBFDFE991EFBFF991E0
:1001D800E991B991A9919991899179916991F99048
:1001E800199009901895E0E0EFBDEEB5E360EEBD1B
:1001F800E8E5ECBDEEE9EDBDE9B7E460E9BFEFEF96
:10020800EABBEFE0E4BBEFEFE1BBE0E0EBBB7894E7
:10021800A0E10E944E030E948F03AEE5B0E00E9469
:100228002A030E949603E0916002E2BBEFE0E5BB7F
:10023800A8989C9911C00E949A0321F40E94A003D7
:10024800A2DF06C00E94A70331F40E94A003A3DF27
:10025800F20131962F0132C09D9911C00E949A0374
:1002680021F40E94AC038FDF06C00E94A70331F47B
:100278000E94AC0390DFF20131962F011FC09E99B6
:1002880011C00E949A0321F40E94B3037CDF06C0C8
:100298000E94A70331F40E94B3037DDFF201319677
:1002A8002F010CC09F990EC0A89ADB98D99ADA9AA8
:1002B8000E948F03A7E8B0E00E942A03A4EFB1E0F0
:1002C8000E942C040E949603A89AA9989C9913C08E
:1002D8000E94BA0321F40E94C00355DF06C00E94A1
:1002E800A70331F40E94C00356DFF20131962F01B3
:1002F8000E94C7033AC09D9913C00E94BA0321F413
:100308000E94CB0340DF06C00E94A70331F40E947D
:10031800CB0341DFF20131962F010E94C70325C0AC
:100328009E9913C00E94BA0321F40E94D2032BDFC6
:1003380006C00E94A70331F40E94D2032CDFF20109
:1003480031962F010E94C70310C09F990EC0A99A29
:10035800DA98D99ADB9A0E948F03A2E9B0E00E944A
:100368002A030E94C70344245524A99A0E9496038D
:10037800AA989C9911C00E94D90321F40E94DF0316
:1003880002DF06C00E94A70331F40E94DF0303DFE7
:10039800F20131962F0135C09D9911C00E94D903F1
:1003A80021F40E94E603EFDE06C00E94A70331F4A1
:1003B8000E94E603F0DEF20131962F0122C09E99D9
:1003C80011C00E94D90321F40E94ED03DCDE06C0AF
:1003D8000E94A70331F40E94ED03DDDEF20131969D
:1003E8002F010FC09F9911C0AA9ACC24DD24E1E007
:1003F800F0E05F012F010E948F03ADE9B0E00E9499
:10040800F403A4EFB1E00E942C040E949603AA9A78
:10041800AB989C990DC0AB9ADA98DB98D99A0E9450
:100428008F03ABEAB0E00E94F403A4E6B0E063C037
:100438009D9914C0AB9AE1E0F0E0EA15FB0521F4C0
:100448000E94FB03A0DE06C00E94A70331F40E94AD
:10045800FB03A1DEF20131962F014BC09E9936C0F5
:10046800AB9AE1E0F0E0EA15FB0581F4AA24BB248D
:10047800F3010E9402040E940B046624772444249A
:1004880055240E948F030E941D0416C00E94A703D2
:10049800C9F4CC24DD24F4010E940204ACE3B0E0EA
:1004A8000E9431050E940B04882499244424552471
:1004B8000E941D040E948F03A2EBB0E00E942A0351
:1004C8000E94C703E0916002E2BB17C09F9915C064
:1004D800AB9AAA24BB24E1E0F0E06F010E948F03ED
:1004E800AEECB0E00E942A03E1E0EA93A0E00E94AB
:1004F800DA02A4EFB1E00E942C04AB9A0E949603A2
:10050800A0916402B0916502119771F4DB98D998B3
:10051800DA98E0E0E0936402E09365020E948F03BA
:10052800AAEDB0E00E942A037CCEFFCFFFE0FA9547
:10053800F1F70895A7B3AF70A7BBC19AC098F6DFCB
:10054800C29AF4DFA6B3C298F1DFC29AEFDFC2986D
:10055800A7FDF5CF0895A07FAB2BA8BBC29A0E9438
:100568009A02C2980E949A020895AA93C198A7B3C2
:10057800A76FA7BBB8B3BF70A881EDDFA881A2950C
:10058800EADFC19A0C947A03C29A0E949A02E6B3EF
:10059800C2980E949A02E07F08950E949A02F4DFAE
:1005A800AE2FF2DFC198E295EA2B0895AA930E9434
:1005B8009E02E881F0E0EA59FD4FE081A981AE0F83
:1005C8000E94B902E981E0936A02E881E0936B0234
:1005D800229608950E949E02A2E00E94B9020E94FB
:1005E8009E02ACE00E94B9020E949E02A1E00E9415
:1005F800B902E0E0E0936B02E0936A020895AA93DF
:10060800EF93FF93A8816894AA3039F0E894E091B9
:100618006C02A0916A02AE1758F0E0916B02EF5F8E
:10062800E0936B02E0E0EA93A0916B02BFDF56F023
:10063800E0916A02EF5FE0936A027CDFC09AA881CA
:100648000E94B902FF91EF910C947A03BA93AA938E
:100658001A93E981FA813196E983FA833197E49113
:100668001E2FE03019F0A12FCADFF3CF188123968F
:100678000895AA27BB271197F1F70895AA93C1985F
:10068800A7B3A76FA7BBB8B3BF70A8810E94AF027A
:10069800C19A2CC0AA93C298C098E881E0936C02D2
:1006A800E058E0936802E881E054E0936902C8D01A
:1006B800C7D0C6D0DEDFA0E2E1DFDBDFA8E2C4D02E
:1006C800A4E0C2D0A5E8C0D0A7B3AF70A7BBC19AB9
:1006D8000E94D102E53011F0E0E008C00E949E02BD
:1006E800A6E00E94B9020E94EE02E1E02196089578
:1006F800A0916002B09161020895E0936002F093C6
:1007080061020895AAE0B0E00E943105A881B9818C
:10071800EA0FFB1F08950E94EE02E0E0EA93A0E0D2
:100728000C94DA02A0E1B0E00C942C04A89AE1E061
:10073800F0E0EA15FB050895A1E8B0E00E942A035D
:10074800A7E0B0E00895E1E0F0E0EC15FD050895BC
:10075800A3E8B0E00E942A03A8E0B0E00895A5E865
:10076800B0E00E942A03A9E0B0E00895A99AE1E068
:10077800F0E0EA15FB050895ACE8B0E00E942A0312
:10078800A4E0B0E00895A4EFB1E00C942C04AEE826
:10079800B0E00E942A03A5E0B0E00895A0E9B0E027
:1007A8000E942A03A6E0B0E00895AA9AE1E0F0E0EA
:1007B800EA15FB050895A7E9B0E00E942A03A1E025
:1007C800B0E00895A9E9B0E00E942A03A2E0B0E0F1
:1007D8000895ABE9B0E00E942A03A3E0B0E00895D1
:1007E8000E942A03E0E0EA93A1E00C94DA02A0EB6D
:1007F800B0E00E942A03A0E0B0E00895A5E0B0E0D0
:100808000E943105ACE3B0E00E94310508950E94D2
:1008180024050E949C04A4E1BEEA87E49FE30E94A9
:10082800CA040E9465046627772762DFEA0FFB1F68
:1008380064CFE1E0F0E0E0936202F0936302089590
:100848000E943D03A0E31ACF0E94B9020C943D0315
:10085800109639F080ED97E00197F1F7A895119778
:10086800C9F70895552342F4503811F4E0FF04C045
:100878003196691F791F6BF050E8572711F45F9381
:1008880073C05F3F31F0660F000C57956795752F61
:1008980008955F9300200AF073C06CC050E8192EC9
:1008A8001522880F991F9527550F879550E8072E11
:1008B8000522660F771F7527550F67950895689469
:1008C80001C0E8945F93F2DF703818F07F3F08F4B6
:1008D8004BC056E1571BAAF4519558300EF45930C5
:1008E80030F0EFEFFFEF6FEF7FE777F91AC0772768
:1008F8005523B9F0EE0FFF1F661F771F5A95D1F7E2
:1009080010C07727583028F0EF2FF62F672F585050
:10091800F9CF552331F076956795F795E7955A9570
:10092800D1F700200AF484D05F910895689401C03B
:10093800E894309760407040B1F0002426F07723A7
:1009480012F4009475D0172E7EE1112032F07A95BA
:10095800EE0FFF1F661F111CF9CFEF2FF62F612D29
:100968005F938ADF5F910895EE27FF276627772731
:100978005F910895EFEFFFEF6FE77FEF5F910895C5
:10098800EFEFFFEF6FE77FE75F9108955F9386DFF3
:10099800703851F3903841F301240894791F23F4F7
:1009A8001CF300203AF3ECCF0F921F932F933F9341
:1009B8004F93112722279927689FA0018F9F302DD9
:1009C800410D591F6B9F300D411D591F8E9F27D018
:1009D800BF9F25D06A9F23D0BE9F1DD0AF9F1BD03D
:1009E800AE9F110D291F391F491F591FE32FF42FDF
:1009F800652F522F4F913F912F911F910F90662392
:100A08002AF0550FEE1FFF1F661F02C073954BF2A9
:100A180029DF5F910895100D211D391F02C0200D97
:100A2800311D491F591F0895F195E195F04008952A
:100A3800F09560957095E195FF4F6F4F7F4F089542
:100A48006F2F660F660B762F0895FA9FF02DEB9F98
:100A5800F00DEA9FE02DF10D089504D0F6DF0EF4B5
:100A6800E3DF0895E894F7FF02C0DEDF6894B7FF7C
:100A780006C0A095B095119600F8039400FA089561
:00000001FF
